:100000000C9463000C948B000C948B000C9458039C
:100010000C9458030C9458030C948B000C948B0094
:100020000C948B000C948B000C948B000C948B0024
:100030000C948B000C948B000C948B000C948B0014
:100040000C940E030C948B000C94DC020C94B602FE
:100050000C948B000C948B000C948B000C948B00F4
:100060000C948B000C948B0000000008000201002F
:100070000003040700000000000000000000000072
:1000800023002600290000000000240027002A0089
:1000900000000000250028002B00040404040404D0
:1000A0000404020202020202030303030303010227
:1000B00004081020408001020408102001020408F6
:1000C00010201C04810811241FBECFEFD8E0DEBF32
:1000D000CDBF11E0A0E0B1E0E8E8F5E102C0059095
:1000E0000D92AA3BB107D9F723E0AAEBB1E001C01A
:1000F0001D92A331B207E1F710E0C2E6D0E004C0E0
:100100002197FE010E94B10AC136D107C9F70E94AA
:100110002D050C94B70A0C940000AF92BF92CF92B9
:10012000DF92EF92FF920F931F93CF93DF936C01B7
:100130007B018B01040F151FEB015E01AE18BF0898
:10014000C017D10759F06991D601ED91FC9101904A
:10015000F081E02DC6010995892B79F7C501DF9162
:10016000CF911F910F91FF90EF90DF90CF90BF90B4
:10017000AF900895FC01538D448D252F30E0842FDE
:1001800090E0821B930B541710F0CF9608950197BF
:100190000895FC01918D828D981761F0A28DAE0FAC
:1001A000BF2FB11D5D968C91928D9F5F9F73928F33
:1001B00090E008958FEF9FEF0895FC01918D828D5F
:1001C000981731F0828DE80FF11D858D90E008952C
:1001D0008FEF9FEF0895FC01918D228D892F90E084
:1001E000805C9F4F821B91098F739927089587E048
:1001F00092E00E94EB0021E0892B09F420E0822F9D
:10020000089580E090E0892B29F00E94F700811189
:100210000C9400000895FC01A48DA80FB92FB11D06
:10022000A35ABF4F2C91848D90E001968F7399272C
:10023000848FA689B7892C93A089B1898C9183700A
:1002400080648C93938D848D981306C00288F38903
:10025000E02D80818F7D80830895EF92FF920F9330
:100260001F93CF93DF93EC0181E0888F9B8D8C8D62
:1002700098131AC0E889F989808185FF15C09FB756
:10028000F894EE89FF896083E889F9898081837019
:10029000806480839FBF81E090E0DF91CF911F91C8
:1002A0000F91FF90EF900895F62E0B8D10E00F5FE9
:1002B0001F4F0F731127E02E8C8D8E110CC00FB6BF
:1002C00007FCFACFE889F989808185FFF5CFCE0157
:1002D0000E940B01F1CFEB8DEC0FFD2FF11DE35AC6
:1002E000FF4FF0829FB7F8940B8FEA89FB898081DA
:1002F0008062CFCFCF93DF93EC01888D8823B9F054
:10030000AA89BB89E889F9898C9185FD03C0808120
:1003100086FD0DC00FB607FCF7CF8C9185FFF2CF9D
:10032000808185FFEDCFCE010E940B01E9CFDF91E7
:10033000CF910895209101023091020228173907C8
:1003400071F49091FF0180910002981741F0E091C3
:10035000FF01F0E0E654FE4F808190E008958FEFBA
:100360009FEF08950895EF92FF920F931F93CF93FD
:10037000DF93DC015C96ED90FC905D97E114F10455
:1003800079F481E090E013969C938E93129790E01D
:1003900080E0DF91CF911F910F91FF90EF90089532
:1003A0005196ED91FC91529750968C915097982FC1
:1003B00090950FB75E962C915E97122F127021FDCB
:1003C0006095F8942081112319F1282B2083E701EF
:1003D0002197F1F728E0462F50E0308160FF1AC0E6
:1003E000382B3083E7012197F1F7BA0175956795AE
:1003F000215089F7112381F08081892380830FBFE9
:100400005C968D919C910197F1F781E090E0C1CFCE
:100410002923DCCF3923E5CF9081892BEFCF2091A1
:100420000102309102022817390771F4809100020D
:100430002091FF0190E0805C9F4F821B910960E456
:1004400070E00E94670A089590E080E0089520918E
:1004500001023091020228173907B9F49091FF0187
:1004600080910002981789F0E091FF01F0E0E654D6
:10047000FE4F80812091FF0130E02F5F3F4F2F73AF
:1004800033272093FF0190E008958FEF9FEF0895A9
:1004900090E080E00895FC01DC019C012B5F3F4F60
:1004A00090E080E04D91840F911DA217B307D1F722
:1004B000238134812E0F3F1FE217F30729F0458176
:1004C000840F911D3196F8CF0895FC010190002012
:1004D000E9F73197AF01481B590BBC0187E092E067
:1004E0000C948D008F929F92AF92BF920F931F93A7
:1004F000CF93DF93CDB7DEB7A1970FB6F894DEBFE9
:100500000FBECDBF19A2423008F44AE08E010F5D44
:100510001F4F842E912CB12CA12CA50194010E9477
:100520007B0AE62FB901CA01EA30F4F4E05DD80194
:10053000EE938D01232B242B252B79F790E080E07F
:10054000109719F0CD010E946502A1960FB6F8949C
:10055000DEBF0FBECDBFDF91CF911F910F91BF9036
:10056000AF909F908F900895E95CE1CF1F920F921A
:100570000FB60F9211242F933F934F935F936F9376
:100580007F938F939F93AF93BF93EF93FF9387E0F6
:1005900092E00E940B01FF91EF91BF91AF919F916B
:1005A0008F917F916F915F914F913F912F910F901C
:1005B0000FBE0F901F9018951F920F920FB60F92BB
:1005C00011242F938F939F93EF93FF93E091170242
:1005D000F09118028081E0911D02F0911E0282FDCF
:1005E0001BC09081809120028F5F8F732091210228
:1005F000821741F0E0912002F0E0E95FFD4F958F16
:1006000080932002FF91EF919F918F912F910F90F6
:100610000FBE0F901F9018958081F4CF1F920F92FC
:100620000FB60F9211242F933F938F939F93AF9305
:10063000BF938091030290910402A0910502B091B2
:1006400006023091FE0123E0230F2D3758F5019665
:10065000A11DB11D2093FE0180930302909304021B
:10066000A0930502B09306028091FA019091FB01DC
:10067000A091FC01B091FD010196A11DB11D8093D7
:10068000FA019093FB01A093FC01B093FD01BF918F
:10069000AF919F918F913F912F910F900FBE0F902F
:1006A0001F90189526E8230F0296A11DB11DD2CFE9
:1006B0001F920F920FB60F9211242F933F934F93D7
:1006C0005F936F937F938F939F93AF93BF93EF93BA
:1006D000FF93E0910102F0910202309749F0A68564
:1006E000B7858585968D91FF14C09C918923A1F4CF
:1006F000FF91EF91BF91AF919F918F917F916F91FA
:100700005F914F913F912F910F900FBE0F901F90CF
:1007100018959C91892361F7A389B4899C91858957
:10072000809589238C93868997890197F1F7608D4D
:10073000718DA685B785558538E020E0CB010197FE
:10074000F1F7822F90E095958795282F4C914523BE
:1007500009F02068315091F7868D81FD20958091B8
:10076000000290E001968F7399273091FF013817AE
:1007700099F0A0910002B0E0A654BE4F2C93809354
:100780000002828D938D0197F1F7A389B4898C9132
:100790009589892B8C93ACCF868D8160868FF1CF24
:1007A00090E0FC01E859FF4F2491FC01E255FF4F16
:1007B0003491FC01E656FF4FE491EE23C9F0222369
:1007C00039F0233001F1A8F4213019F1223029F158
:1007D000F0E0EE0FFF1FE057FF4FA591B4918FB7E8
:1007E000F894EC91611126C030953E233C938FBF65
:1007F00008952730A9F02830C9F0243049F78091B6
:1008000080008F7D03C0809180008F77809380006F
:10081000DFCF84B58F7784BDDBCF84B58F7DFBCFF1
:100820008091B0008F778093B000D2CF8091B000DC
:100830008F7DF9CF3E2BDACF0F931F93CF93DF93AA
:1008400010920A021092090288EE93E0A0E0B0E054
:1008500080930B0290930C02A0930D02B0930E02B2
:1008600024E031E0309308022093070225EC30E0C9
:10087000309314022093130224EC30E030931602DC
:100880002093150220EC30E03093180220931702D9
:1008900021EC30E030931A022093190222EC30E070
:1008A00030931C0220931B0226EC30E030931E0292
:1008B00020931D0210922002109221021092220217
:1008C000109223021092F7021092F6028093F8021F
:1008D0009093F902A093FA02B093FB0286E191E0B3
:1008E0009093F5028093F40210920B0310920A0386
:1008F00010920D0310920C0310920F0310920E032E
:100900001092110310921003609112036E7F6D7F9D
:10091000609312036695617081E068278BE00E9406
:10092000D00349EB50E0FA01649185EA90E0FC01C4
:100930002491222399F030E0220F331FF901EA5766
:10094000FF4FA591B491F901E057FF4F25913491E4
:100950002FB7F8943C91632B6C932FBFFA0144910D
:1009600040930403FC018491E82FF0E0EE0FFF1F99
:10097000E057FF4F85919491909306038093050370
:1009800008EB10E0F8012491C4EAD0E0FE01849164
:100990008823C9F090E0880F991FFC01EA57FF4FA8
:1009A000A591B491FC01E057FF4F459154913FB799
:1009B000F8949C91822F809598239C93FA019081C2
:1009C000892380833FBF8091120381FD04C061E0D1
:1009D0008AE00E94D0038AE080930003F80104912A
:1009E00000930103FE01C491EC2FF0E0EE0FFF1F16
:1009F000E458FF4F859194919093030380930203F1
:100A000084EF92E09093EC028093EB0288EE93E007
:100A1000A0E0B0E08093EF029093F002A093F10287
:100A2000B093F20283E08093F3021092ED021092F1
:100A3000EE028EE78093A4021092A5021092A60205
:100A40001092A8021092A7021092EA021092E902F4
:100A5000DF91CF911F910F910895CF93DF93CDB781
:100A6000DEB7C754D1090FB6F894DEBF0FBECDBFB5
:100A7000789484B5826084BD84B5816084BD85B579
:100A8000826085BD85B5816085BD80916E00816085
:100A900080936E001092810080918100826080932B
:100AA000810080918100816080938100809180002D
:100AB0008160809380008091B10084608093B10058
:100AC0008091B00081608093B00080917A00846052
:100AD00080937A0080917A00826080937A0080917E
:100AE0007A00816080937A0080917A008068809398
:100AF0007A001092C100E0911702F091180282E092
:100B00008083E0911302F09114021082E0911502AB
:100B1000F09116028FEC808310921F02E0911B026D
:100B2000F0911C0286E08083E0911902F0911A0294
:100B3000808180618083E0911902F0911A028081A6
:100B400088608083E0911902F0911A0280818068A8
:100B50008083E0911902F0911A0280818F7D808359
:100B6000E091EB02F091EC02138E128E118E108E3A
:100B7000178A168A8DE991E0958F848F8485863156
:100B800008F03DC02DEB30E0378B268B2BE931E0B0
:100B9000318F208F2CE231E0338F228F90916800CB
:100BA000883008F439C121E08E3008F420E081E07B
:100BB00001C0880F2A95EAF7892B809368009485F5
:100BC0002DE630E0983050F02BE630E09E3030F0EB
:100BD0002CE630E0963110F030E020E0348B238BAF
:100BE000292F30E0983008F019C181E001C0880F4A
:100BF0009A95EAF7858B848D958D0197F1F7828D13
:100C0000938D892B41F14091010250910202E4172A
:100C1000F50709F14115510569F0DA0153962D9157
:100C20003C91D9019C91DA0155968C91809589234C
:100C3000D9018C93868D8E7F868F10920002109240
:100C4000FF01F0930202E0930102A389B4898C9121
:100C50009589892B8C9384E291E00E94650289E456
:100C600091E00E9465021EE705E150E0252E50E06C
:100C7000352E8091EB029091EC02DC01ED91FC911C
:100C80000084F185E02D0995892B09F462C18FB7A5
:100C9000F894409003025090040260900502709016
:100CA00006028FBFF12CE12CD12CC12C2FB7F89468
:100CB0008091030290910402A0910502B091060276
:100CC0002FBF84199509A609B709883E9340A1054D
:100CD000B10508F00BC18091EB029091EC02DC01B0
:100CE000ED91FC910084F185E02D0995892BF1F2BD
:100CF0008091EB029091EC02DC01ED91FC91028479
:100D0000F385E02D0995B1E0CB16D10409F49FC01D
:100D100008F491C0F2E0CF16D10409F4B4C023E086
:100D2000C216D10419F697012F5F3F4FF701E75123
:100D3000FD4F80832230310508F4B3C084EA92E08D
:100D40000E944B022091E9023091EA028217930738
:100D500009F0CCC08091A602863009F4FAC0853132
:100D600009F4F7C08091A50219831D821C82289680
:100D70001FAE1EAE28978A8386E08B83CE01019634
:100D80000E944B0228969FAF8EAF28978091EB026E
:100D90009091EC02DC01ED91FC910280F381E02D59
:100DA00045E050E0BE016F5F7F4F09958091EB02F7
:100DB0009091EC02DC01ED91FC910280F381E02D39
:100DC00042E050E0BE016A5B7F4F09958091A50229
:100DD0009091EE028913BDC08F5F8093EE028CE488
:100DE00091E00E9465026091A50270E090E080E0D1
:100DF0004AE00E94720282E591E00E9465028091C1
:100E0000A602823009F4C3C008F04DC0813009F455
:100E1000ACC087EA91E0E0C084E0CECE9E3040F4E2
:100E20002850310981E001C0880F2A95EAF7E2CE07
:100E30002E503109F7CF8E3709F038CF8093A402B6
:100E4000EE24E394F12CCC24C394D12C2FCF970122
:100E50002F5F3F4FF701EC55FD4F80832530310563
:100E600000F18091A7029091A802F12CE12C42E0C0
:100E7000C42ED12C892B09F019CFF12CE12C93E051
:100E8000C92ED12C13CF97012F5F3F4FF701EC559F
:100E9000FD4F85838091A7029091A80228173907FA
:100EA00060F7790103CF833009F47EC0843009F004
:100EB000B0CF88E991E00E94650284EAE82E82E0E2
:100EC000F82EC701845A9240BFEFEB1AFB0A20911B
:100ED000A7023091A8028217930708F053C0F701C8
:100EE000648187E092E00E942D01EBCF8091EE02B9
:100EF00019831D821C8228961FAE1EAE28978A83F6
:100F00000B83CE0101960E944B0228969FAF8EAFB5
:100F100028978091EB029091EC02DC01ED91FC911D
:100F20000280F381E02D45E050E0BE016F5F7F4F0E
:100F300009958091EB029091EC02DC01ED91FC911E
:100F40000280F381E02D42E050E0BE016A5B7F4FFA
:100F500009952114310409F48CCE0E94F7008823EE
:100F600009F481CE0E9400007ECEF090A9028CE5AB
:100F700091E00E9465026F2D70E090E080E042E019
:100F80000E94720289E491E00E946502E2CFE09043
:100F9000A902F090AA028BE691E00E946502B701D7
:100FA00090E080E040E1ECCFC090A902D090AA028E
:100FB000E090AB02F090AC028CE791E00E946502F9
:100FC00026013701A7019601C701B6010E94620AF6
:100FD000882329F08CE891E00E946502D3CF460176
:100FE0005701E894B7F82FEF3FEF4FE75FE7C501F0
:100FF000B4010E94620A81110DC02FEF3FEF4FE74D
:101000005FE7C501B4010E940A0918161CF480E9C3
:1010100091E0E2CF2FEF3FEF4FE75FE4C701B6016A
:101020000E94F00918161CF484E991E0D5CF2FEF47
:101030003FEF4FE75FECC701B6010E940A0987FD49
:10104000F3CF20E030E0A901C701B6010E940A09F0
:1010500087FF0BC06DE287E092E00E942D01260120
:10106000370177FA709477F870942AE037ED43EA05
:101070005BE3C301B2010E949E082B013C010E9468
:101080000F096B017C010E943E099B01AC01C30169
:10109000B2010E949D082B013C014AE0C701B60144
:1010A0000E9472026EE287E092E00E942D0120E031
:1010B00030E040E251E4C301B2010E94F5092B0186
:1010C0003C010E940F096B01F12CE12C4AE0C701A1
:1010D000B6010E947202C701B6010E943E099B013F
:1010E000AC01C301B2010E949D0820E030E040E263
:1010F00051E40E94F5090E940F0990E080E04AE067
:101100003FCF86E191E09093F5028093F4028091C5
:10111000010290910202845F924071F4E091070312
:10112000F091080390818091090380958923808341
:10113000109202021092010208955058BB27AA276C
:101140000E94B5080C94B6090E94A80938F00E94C4
:10115000AF0920F039F49F3F19F426F40C94A50947
:101160000EF4E095E7FB0C949F09E92F0E94C70954
:1011700058F3BA17620773078407950720F079F4CC
:10118000A6F50C94E9090EF4E0950B2EBA2FA02DCC
:101190000B01B90190010C01CA01A0011124FF2724
:1011A000591B99F0593F50F4503E68F11A16F0401F
:1011B000A22F232F342F4427585FF3CF469537951E
:1011C0002795A795F0405395C9F77EF41F16BA0BE3
:1011D000620B730B840BBAF09150A1F0FF0FBB1F91
:1011E000661F771F881FC2F70EC0BA0F621F731FDA
:1011F000841F48F4879577956795B795F7959E3F37
:1012000008F0B0CF9395880F08F09927EE0F9795C7
:10121000879508950E947B0908F481E008950E9453
:10122000CF0988F09F5798F0B92F9927B751B0F0A0
:10123000E1F0660F771F881F991F1AF0BA95C9F75A
:1012400014C0B13091F00E94E909B1E008950C9406
:10125000E909672F782F8827B85F39F0B93FCCF3B9
:10126000869577956795B395D9F73EF490958095D7
:10127000709561957F4F8F4F9F4F0895E89409C0F7
:1012800097FB3EF490958095709561957F4F8F4FB9
:101290009F4F9923A9F0F92F96E9BB279395F695CF
:1012A000879577956795B795F111F8CFFAF4BB0F4D
:1012B00011F460FF1BC06F5F7F4F8F4F9F4F16C0B1
:1012C000882311F096E911C0772321F09EE8872F3B
:1012D000762F05C0662371F096E8862F70E060E0F7
:1012E0002AF09A95660F771F881FDAF7880F969570
:1012F000879597F90895990F0008550FAA0BE0E814
:10130000FEEF16161706E807F907C0F012161306C7
:10131000E407F50798F0621B730B840B950B39F407
:101320000A2661F0232B242B252B21F408950A266D
:1013300009F4A140A6958FEF811D811D089597F9AD
:101340009F6780E870E060E008959FEF80EC08956B
:1013500000240A9416161706180609060895002494
:101360000A9412161306140605060895092E03940E
:10137000000C11F4882352F0BB0F40F4BF2B11F482
:1013800060FF04C06F5F7F4F8F4F9F4F089557FDE1
:101390009058440F551F59F05F3F71F04795880FE3
:1013A00097FB991F61F09F3F79F08795089512167A
:1013B00013061406551FF2CF4695F1DF08C0161626
:1013C00017061806991FF1CF8695710561050894D7
:1013D0000895E894BB2766277727CB0197F90895EE
:1013E0000E947B0908F48FEF08950E94080A0C946C
:1013F000B6090E94A80938F00E94AF0920F0952391
:1014000011F00C949F090C94A50911240C94EA097D
:101410000E94C70970F3959FC1F3950F50E0551FC7
:10142000629FF001729FBB27F00DB11D639FAA2739
:10143000F00DB11DAA1F649F6627B00DA11D661F88
:10144000829F2227B00DA11D621F739FB00DA11DA9
:10145000621F839FA00D611D221F749F3327A00D63
:10146000611D231F849F600D211D822F762F6A2FFF
:1014700011249F5750409AF0F1F088234AF0EE0F64
:10148000FF1FBB1F661F771F881F91505040A9F791
:101490009E3F510580F00C949F090C94EA095F3F30
:1014A000E4F3983ED4F3869577956795B795F795CD
:1014B000E7959F5FC1F7FE2B880F911D9695879545
:1014C00097F908950E947B09880B990B089597FB63
:1014D000072E16F4009407D077FD09D00E949D0ACC
:1014E00007FC05D03EF4909581959F4F0895709527
:1014F00061957F4F0895A1E21A2EAA1BBB1BFD0127
:101500000DC0AA1FBB1FEE1FFF1FA217B307E407E2
:10151000F50720F0A21BB30BE40BF50B661F771F3A
:10152000881F991F1A9469F760957095809590951A
:101530009B01AC01BD01CF010895AA1BBB1B51E16A
:1015400007C0AA1FBB1FA617B70710F0A61BB70B33
:10155000881F991F5A95A9F780959095BC01CD01D8
:101560000895EE0FFF1F0590F491E02D099410E00F
:10157000C2E6D0E004C0FE010E94B10A2196C33643
:08158000D107C9F7F894FFCF71
:10158800000000002D018D00BA007A01EB00C900AF
:10159800DD0000000000B3018D004802B2010F0217
:1015A80027029A0152656365697665722070726FC9
:1015B8006E746F2E20416775617264616E646F206E
:1015C8006461646F732E2E2E000D0A005365713A04
:1015D8002000207C205469706F3A200042595445FD
:1015E800207C2056616C6F723A2000574F5244207D
:1015F8007C2056616C6F723A20307800464C4F411F
:1016080054207C2056616C6F723A20006E616E0027
:10161800696E66006F76660044415441207C20560E
:10162800616C6F723A20005469706F20646573634F
:0A1638006F6E68656369646F00005F
:00000001FF
