:100000000C9463000C948B000C948B000C94620590
:100010000C9462050C9462050C948B000C948B007C
:100020000C948B000C948B000C948B000C948B0024
:100030000C948B000C948B000C948B000C948B0014
:100040000C9418050C948B000C94E6040C94C004DA
:100050000C948B000C948B000C948B000C948B00F4
:100060000C948B000C948B000000000024002700EF
:100070002A0000000008000201000003040700003D
:1000800000000000000000000000230026002900FE
:1000900000000000250028002B00040404040404D0
:1000A0000404020202020202030303030303010227
:1000B00004081020408001020408102001020408F6
:1000C00010200806C70811241FBECFEFD8E0DEBFFE
:1000D000CDBF12E0A0E0B1E0ECE3F2E102C0059098
:1000E0000D92A833B107D9F723E0A8E3B2E001C02D
:1000F0001D92A635B207E1F710E0C2E6D0E004C0D9
:100100002197FE010E940B09C136D107C9F70E9451
:10011000CC060C9411090C940000AF92BF92CF92C0
:10012000DF92EF92FF920F931F93CF93DF936C01B7
:100130007B018B01040F151FEB015E01AE18BF0898
:10014000C017D10759F06991D601ED91FC9101904A
:10015000F081E02DC6010995892B79F7C501DF9162
:10016000CF911F910F91FF90EF90DF90CF90BF90B4
:10017000AF900895FC01538D448D252F30E0842FDE
:1001800090E0821B930B541710F0CF9608950197BF
:100190000895FC01918D828D981761F0A28DAE0FAC
:1001A000BF2FB11D5D968C91928D9F5F9F73928F33
:1001B00090E008958FEF9FEF0895FC01918D828D5F
:1001C000981731F0828DE80FF11D858D90E008952C
:1001D0008FEF9FEF0895FC01918D228D892F90E084
:1001E000805C9F4F821B91098F739927089581E945
:1001F00092E00E94EB0021E0892B09F420E0822F9D
:10020000089580E090E0892B29F00E94F700811189
:100210000C9400000895FC01A48DA80FB92FB11D06
:10022000A35ABF4F2C91848D90E001968F7399272C
:10023000848FA689B7892C93A089B1898C9183700A
:1002400080648C93938D848D981306C00288F38903
:10025000E02D80818F7D80830895EF92FF920F9330
:100260001F93CF93DF93EC0181E0888F9B8D8C8D62
:1002700098131AC0E889F989808185FF15C09FB756
:10028000F894EE89FF896083E889F9898081837019
:10029000806480839FBF81E090E0DF91CF911F91C8
:1002A0000F91FF90EF900895F62E0B8D10E00F5FE9
:1002B0001F4F0F731127E02E8C8D8E110CC00FB6BF
:1002C00007FCFACFE889F989808185FFF5CFCE0157
:1002D0000E940B01F1CFEB8DEC0FFD2FF11DE35AC6
:1002E000FF4FF0829FB7F8940B8FEA89FB898081DA
:1002F0008062CFCFCF93DF93EC01888D8823B9F054
:10030000AA89BB89E889F9898C9185FD03C0808120
:1003100086FD0DC00FB607FCF7CF8C9185FFF2CF9D
:10032000808185FFEDCFCE010E940B01E9CFDF91E7
:10033000CF910895833081F028F4813099F0823094
:10034000A9F008958730A9F08830C9F08430B1F45D
:10035000809180008F7D03C0809180008F77809393
:100360008000089584B58F7784BD089584B58F7D0E
:10037000FBCF8091B0008F778093B000089580917B
:10038000B0008F7DF9CFCF93DF93282F30E0F901B4
:10039000EE58FF4F8491F901E255FF4FD491F901D6
:1003A000E656FF4FC491CC23A1F081110E949A011F
:1003B000EC2FF0E0EE0FFF1FEA57FF4FA591B4912D
:1003C000EC91ED2381E090E009F480E0DF91CF91A2
:1003D000089580E090E0FACFCF93DF9390E0FC01A6
:1003E000E255FF4F249186569F4FFC01849188234C
:1003F000C9F090E0880F991FFC01E859FF4FA591C3
:10040000B491FC01E057FF4FC591D49161110DC02B
:100410009FB7F8948C91209582238C938881282310
:1004200028839FBFDF91CF910895623051F49FB729
:10043000F8943C91822F809583238C93E8812E2B16
:10044000EFCF8FB7F894EC912E2B2C938FBFEACF80
:100450003FB7F89480917D0290917E02A0917F0237
:10046000B091800226B5A89B05C02F3F19F00196D8
:10047000A11DB11D3FBFBA2FA92F982F8827BC01FE
:10048000CD01620F711D811D911D42E0660F771F26
:10049000881F991F4A95D1F708952FB7F894609156
:1004A000790270917A0280917B0290917C022FBF39
:1004B000089520918302309184022817390771F43E
:1004C0009091810280918202981741F0E09181021F
:1004D000F0E0E85CFD4F808190E008958FEF9FEFA2
:1004E00008950895EF92FF920F931F93CF93DF9398
:1004F000DC015C96ED90FC905D97E114F10479F4D9
:1005000081E090E013969C938E93129790E080E0A8
:10051000DF91CF911F910F91FF90EF900895519629
:10052000ED91FC91529750968C915097982F909501
:100530000FB75E962C915E97122F127021FD609579
:10054000F8942081112319F1282B2083E7012197AA
:10055000F1F728E0462F50E0308160FF1AC0382BB9
:100560003083E7012197F1F7BA017595679521501E
:1005700089F7112381F08081892380830FBF5C96E6
:100580008D919C910197F1F781E090E0C1CF2923F3
:10059000DCCF3923E5CF9081892BEFCF20918302E7
:1005A000309184022817390771F4809182022091DA
:1005B000810290E0805C9F4F821B910960E470E0B3
:1005C0000E94E308089590E080E00895209183025E
:1005D0003091840228173907B9F4909181028091F3
:1005E0008202981789F0E0918102F0E0E85CFD4F0B
:1005F00080812091810230E02F5F3F4F2F7333279E
:100600002093810290E008958FEF9FEF089590E08E
:1006100080E00895FC01DC019C012B5F3F4F90E0DE
:1006200080E04D91840F911DA217B307D1F723816C
:1006300034812E0F3F1FE217F30729F04581840F05
:10064000911D3196F8CF08952F923F924F925F926D
:100650006F927F928F929F92AF92BF92CF92DF92D2
:10066000EF92FF920F931F93CF93DF93CDB7DEB737
:10067000C259D1090FB6F894DEBF0FBECDBF1B0122
:100680005A019EE729969FAF2997C357DF4F1982DA
:100690001882CD58D040909130032A969FAF2A9768
:1006A0002B968FAF2B972D965FAF4EAF2D97FB01FB
:1006B000A8E4B0E0AC0FBD1F1596CA01860F971FC6
:1006C00021912D93E817F907D9F7CE01885B9F4F49
:1006D0000E940A03C357DF4F99838883CD58D040C7
:1006E000912C4EE7842E80913603981608F029C18C
:1006F00080912E0390912F03DC01ED91FC910280FB
:10070000F381E02D45E050E0BE01685B7F4F099525
:1007100080912E0390912F03DC01ED91FC910280DA
:10072000F381E02DA501B101099580912E039091EF
:100730002F03DC01ED91FC910280F381E02D42E07A
:1007400050E0BE0163577F4F099589821A821B8250
:100750001D821C8228961FAE1EAE28972091320360
:10076000309133034091340350913503C157DF4F2B
:10077000288339834A835B83CF58D0400E944D023F
:100780002B013C0110E000E0F12CE12C0E944D0215
:100790006419750986099709C157DF4F2881398186
:1007A0004A815B81CF58D040621773078407950751
:1007B00008F0A1C080912E0390912F03DC01ED91F0
:1007C000FC910084F185E02D0995892BF9F2809147
:1007D0002E0390912F03DC01ED91FC910284F385AF
:1007E000E02D0995B1E0EB16F10409F456C008F4C8
:1007F0004AC032E0E316F10409F46CC043E0E416A9
:10080000F10421F698012F5F3F4FE6E4F0E0EC0F92
:10081000FD1FE00FF11F80832230310508F469C00D
:10082000CE0101960E940A0328962EAD3FAD28976F
:100830008217930709F05FC08B81863009F05BC097
:100840008A8190913003891356C08F5F8093300363
:1008500081E0CE56DF4F0FB6F894DEBF0FBECDBF9E
:10086000DF91CF911F910F91FF90EF90DF90CF908C
:10087000BF90AF909F908F907F906F905F904F90C0
:100880003F902F9008958E3709F080CF898301E043
:1008900010E0EE24E394F12C79CF98012F5F3F4FC5
:1008A000E1E0F0E0EC0FFD1FE00FF11F8083253049
:1008B0003105F8F08C819D8110E000E032E0E32EFC
:1008C000F12C892B09F062CF10E000E093E0E92ED3
:1008D000F12C5CCF98012F5F3F4FE6E0F0E0EC0F8A
:1008E000FD1FE00FF11F80838C819D812817390740
:1008F00058F789014BCF93940E9428026B017C0129
:1009000082E3482E512C612C712C0E9428026C1914
:100910007D098E099F09683E734081059105A8F302
:1009200051E0451A51086108710888EEC80E83E04D
:10093000D81EE11CF11C411451046104710429F713
:10094000D2CE80E086CFCF93DF93FC0101900020D0
:10095000E9F73197AF01481B590BBC0181E992E0DF
:100960000E948D00EC0142E050E06DE271E081E90F
:1009700092E00E948D008C0F9D1FDF91CF91089512
:100980001F920F920FB60F9211242F933F934F9304
:100990005F936F937F938F939F93AF93BF93EF93E7
:1009A000FF9381E992E00E940B01FF91EF91BF91CB
:1009B000AF919F918F917F916F915F914F913F91F7
:1009C0002F910F900FBE0F901F9018951F920F92AE
:1009D0000FB60F9211242F938F939F93EF93FF9352
:1009E000E091A102F091A2028081E091A702F09132
:1009F000A80282FD1BC090818091AA028F5F8F7335
:100A00002091AB02821741F0E091AA02F0E0EF568C
:100A1000FD4F958F8093AA02FF91EF919F918F9147
:100A20002F910F900FBE0F901F9018958081F4CFDB
:100A30001F920F920FB60F9211242F933F938F9313
:100A40009F93AF93BF938091790290917A02A09186
:100A50007B02B0917C023091780223E0230F2D3786
:100A600058F50196A11DB11D20937802809379025B
:100A700090937A02A0937B02B0937C0280917D02D6
:100A800090917E02A0917F02B09180020196A11DFB
:100A9000B11D80937D0290937E02A0937F02B0935C
:100AA0008002BF91AF919F918F913F912F910F90B5
:100AB0000FBE0F901F90189526E8230F0296A11DD8
:100AC000B11DD2CF1F920F920FB60F9211242F9308
:100AD0003F934F935F936F937F938F939F93AF93C6
:100AE000BF93EF93FF93E0918302F09184023097DC
:100AF00049F0A685B7858585968D91FF14C09C9198
:100B00008923A1F4FF91EF91BF91AF919F918F91B4
:100B10007F916F915F914F913F912F910F900FBEF9
:100B20000F901F9018959C91892361F7A389B48930
:100B30009C918589809589238C93868997890197D3
:100B4000F1F7608D718DA685B785558538E020E079
:100B5000CB010197F1F7822F90E095958795282F8B
:100B60004C91452309F02068315091F7868D81FD25
:100B700020958091820290E001968F7399273091A1
:100B80008102381799F0A0918202B0E0A85CBD4FB5
:100B90002C9380938202828D938D0197F1F7A38924
:100BA000B4898C919589892B8C93ACCF868D81608B
:100BB000868FF1CF1F93CF93DF93282F30E0F90179
:100BC000EE58FF4F8491F901E255FF4FD491F9019E
:100BD000E656FF4FC491CC23A9F0162F81110E9435
:100BE0009A01EC2FF0E0EE0FFF1FE057FF4FA591A9
:100BF000B4918FB7F894EC91111108C0D095DE2311
:100C0000DC938FBFDF91CF911F910895DE2BF8CF3A
:100C1000109294021092930288EE93E0A0E0B0E06C
:100C20008093950290939602A0939702B0939802B6
:100C30002DE031E0309392022093910225EC30E0D8
:100C400030939E0220939D0224EC30E03093A0026A
:100C500020939F0220EC30E03093A2022093A10267
:100C600021EC30E03093A4022093A30222EC30E088
:100C70003093A6022093A50226EC30E03093A80220
:100C80002093A7021092AA021092AB021092AC021B
:100C90001092AD0210923A031092390380933B03F5
:100CA00090933C03A0933D03B0933E038FE191E00A
:100CB000909338038093370310924E0310924D03A4
:100CC0001092500310924F0310925203109251034E
:100CD0001092540310925303609155036E7F6D7F01
:100CE000609355036695617081E068278BE00E94F0
:100CF000DA0561E08BE00E94EC01E9EBF0E0E491C1
:100D0000E0934703E5EAF0E0E491F0E0EE0FFF1F27
:100D1000E057FF4F85919491909349038093480346
:100D200060E08AE00E94EC018091550381FD04C0DF
:100D300061E08AE00E94DA058AE080934303E8EBF1
:100D4000F0E0E491E0934403E4EAF0E0E491F0E0C1
:100D5000EE0FFF1FEA57FF4F859194919093460342
:100D60008093450387E393E090932F0380932E03B2
:100D700088EE93E0A0E0B0E08093320390933303D9
:100D8000A0933403B093350383E08093360310922D
:100D90003003109231030895CF93DF9300D000D039
:100DA0001F92CDB7DEB7789484B5826084BD84B5D8
:100DB000816084BD85B5826085BD85B5816085BD56
:100DC00080916E00816080936E001092810080910E
:100DD0008100826080938100809181008160809396
:100DE0008100809180008160809380008091B100BB
:100DF00084608093B1008091B00081608093B000E6
:100E000080917A00846080937A0080917A00826079
:100E100080937A0080917A00816080937A0080913B
:100E20007A00806880937A001092C100E091A1025C
:100E3000F091A20282E08083E0919D02F0919E02F7
:100E40001082E0919F02F091A0028FEC80831092BB
:100E5000A902E091A502F091A60286E08083E091CC
:100E6000A302F091A402808180618083E091A302BB
:100E7000F091A402808188608083E091A302F091C8
:100E8000A402808180688083E091A302F091A40293
:100E900080818F7D8083E0912E03F0912F03138E4C
:100EA000128E118E108E178A168A8DE991E0958F19
:100EB000848F8485863108F03DC02DEB30E0378B80
:100EC000268B2BE931E0318F208F2CE231E0338FFC
:100ED000228F90916800883008F441C121E08E3063
:100EE00008F420E081E001C0880F2A95EAF7892BF9
:100EF0008093680094852DE630E0983050F02BE622
:100F000030E09E3030F02CE630E0963110F030E0EA
:100F100020E0348B238B292F30E0983008F021C15A
:100F200081E001C0880F9A95EAF7858B848D958DB5
:100F30000197F1F7828D938D892B41F140918302C6
:100F400050918402E417F50709F14115510569F044
:100F5000DA0153962D913C91D9019C91DA01559675
:100F60008C9180958923D9018C93868D8E7F868F75
:100F70001092820210928102F0938402E093830225
:100F8000A389B4898C919589892B8C9362E082E046
:100F90000E94EC0162E083E00E94EC0162E084E0E8
:100FA0000E94EC0180E391E00E94A30400E010E0C5
:100FB00081E5B82EC12CD12C90E2E92E90E4F92ED7
:100FC00082E00E94C301AA24A394009709F4A12CF3
:100FD000892BA9F580910001882389F10E944D0297
:100FE000409085025090860260908702709088023F
:100FF0006419750986099709693C71058105910590
:10100000F0F00E944D0260938502709386028093F7
:101010008702909388028FE391E00E94A304BD822F
:1010200041E050E0BE016B5F7F4F81E00E942403EE
:10103000882309F4A3C080E591E00E94A304A09254
:10104000000183E00E94C301AA24A394009709F43D
:10105000A12C892BC1F5809101018823A1F10E9467
:101060004D024090890250908A0260908B027090ED
:101070008C026419750986099709693C7105810517
:10108000910508F10E944D026093890270938A02D3
:1010900080938B0290938C028DE891E00E94A304D0
:1010A000C982DA82EB82FC8244E050E0BE016F5FCD
:1010B0007F4F83E00E942403882309F462C08FE9F4
:1010C00091E00E94A304A092010184E00E94C30168
:1010D000AA24A394009709F4A12C892B91F580915F
:1010E0000201882371F10E944D0240908D025090C0
:1010F0008E0260908F0270909002641975098609C3
:101100009709693C710581059105D8F00E944D024F
:1011100060938D0270938E0280938F029093900261
:101120008EED91E00E94A30445E050E063E071E0A1
:1011300084E00E942403882339F18AEF91E00E9421
:10114000A304A09202010115110509F439CF0E94F0
:10115000F700882309F434CF0E94000031CF84E0E7
:10116000C6CE9E3040F42850310981E001C0880F7E
:101170002A95EAF7DACE2E503109F7CF8CE691E0C6
:101180005CCF8CEB91E09DCF86E192E0D8CF8FE1F0
:1011900091E090933803809337038091830290917C
:1011A00084028753934071F4E0914A03F0914B031A
:1011B000908180914C0380958923808310928402D2
:1011C00010928302089597FB072E16F4009407D01F
:1011D00077FD09D00E94F70807FC05D03EF49095F2
:1011E00081959F4F0895709561957F4F0895AA1B33
:1011F000BB1B51E107C0AA1FBB1FA617B70710F002
:10120000A61BB70B881F991F5A95A9F78095909533
:10121000BC01CD010895EE0FFF1F0590F491E02D64
:10122000099410E0C2E6D0E004C0FE010E940B0960
:0C1230002196C336D107C9F7F894FFCF10
:10123C000101014F4B31323300000000002D018DB4
:10124C0000BA007A01EB00C900DD0000000000725A
:10125C00028D0007037102CE02E60259020D0A004C
:10126C0053656E6465722070726F6E746F2E0045DC
:10127C006E7669616E646F20627974652E2E2E0015
:10128C004279746520656E766961646F20286163AC
:10129C006B20726563656269646F290046616C68D6
:1012AC0061206E6F20656E76696F20646F206279A5
:1012BC007465202874696D656F75742900456E76A8
:1012CC0069616E646F20666C6F61742E2E2E004601
:1012DC006C6F617420656E766961646F2028616340
:1012EC006B20726563656269646F290046616C6886
:1012FC0061206E6F20656E76696F20646F20666C5E
:10130C006F6174202874696D656F75742900456E62
:10131C007669616E646F206461646F202873656EFA
:10132C006444617461292E2E2E004461646F206523
:10133C006E766961646F202861636B2072656365EA
:10134C006269646F290046616C6861206E6F20656C
:10135C006E76696F20646F206461646F20287469F5
:08136C006D656F757429000026
:00000001FF
